{
  "contractName": "metaverse",
  "abi": [
    {
      "inputs": [
        {
          "internalType": "string",
          "name": "_name",
          "type": "string"
        },
        {
          "internalType": "string",
          "name": "_symbol",
          "type": "string"
        },
        {
          "internalType": "uint256",
          "name": "_cost",
          "type": "uint256"
        }
      ],
      "stateMutability": "nonpayable",
      "type": "constructor"
    },
    {
      "anonymous": false,
      "inputs": [
        {
          "indexed": true,
          "internalType": "address",
          "name": "owner",
          "type": "address"
        },
        {
          "indexed": true,
          "internalType": "address",
          "name": "approved",
          "type": "address"
        },
        {
          "indexed": true,
          "internalType": "uint256",
          "name": "tokenId",
          "type": "uint256"
        }
      ],
      "name": "Approval",
      "type": "event"
    },
    {
      "anonymous": false,
      "inputs": [
        {
          "indexed": true,
          "internalType": "address",
          "name": "owner",
          "type": "address"
        },
        {
          "indexed": true,
          "internalType": "address",
          "name": "operator",
          "type": "address"
        },
        {
          "indexed": false,
          "internalType": "bool",
          "name": "approved",
          "type": "bool"
        }
      ],
      "name": "ApprovalForAll",
      "type": "event"
    },
    {
      "anonymous": false,
      "inputs": [
        {
          "indexed": true,
          "internalType": "address",
          "name": "from",
          "type": "address"
        },
        {
          "indexed": true,
          "internalType": "address",
          "name": "to",
          "type": "address"
        },
        {
          "indexed": true,
          "internalType": "uint256",
          "name": "tokenId",
          "type": "uint256"
        }
      ],
      "name": "Transfer",
      "type": "event"
    },
    {
      "inputs": [
        {
          "internalType": "address",
          "name": "to",
          "type": "address"
        },
        {
          "internalType": "uint256",
          "name": "tokenId",
          "type": "uint256"
        }
      ],
      "name": "approve",
      "outputs": [],
      "stateMutability": "nonpayable",
      "type": "function"
    },
    {
      "inputs": [
        {
          "internalType": "address",
          "name": "owner",
          "type": "address"
        }
      ],
      "name": "balanceOf",
      "outputs": [
        {
          "internalType": "uint256",
          "name": "",
          "type": "uint256"
        }
      ],
      "stateMutability": "view",
      "type": "function"
    },
    {
      "inputs": [
        {
          "internalType": "uint256",
          "name": "",
          "type": "uint256"
        }
      ],
      "name": "buildings",
      "outputs": [
        {
          "internalType": "string",
          "name": "name",
          "type": "string"
        },
        {
          "internalType": "address",
          "name": "owner",
          "type": "address"
        },
        {
          "internalType": "uint256",
          "name": "posX",
          "type": "uint256"
        },
        {
          "internalType": "uint256",
          "name": "posY",
          "type": "uint256"
        },
        {
          "internalType": "uint256",
          "name": "posZ",
          "type": "uint256"
        },
        {
          "internalType": "uint256",
          "name": "sizeX",
          "type": "uint256"
        },
        {
          "internalType": "uint256",
          "name": "sizeY",
          "type": "uint256"
        },
        {
          "internalType": "uint256",
          "name": "sizeZ",
          "type": "uint256"
        }
      ],
      "stateMutability": "view",
      "type": "function"
    },
    {
      "inputs": [],
      "name": "cost",
      "outputs": [
        {
          "internalType": "uint256",
          "name": "",
          "type": "uint256"
        }
      ],
      "stateMutability": "view",
      "type": "function"
    },
    {
      "inputs": [
        {
          "internalType": "uint256",
          "name": "tokenId",
          "type": "uint256"
        }
      ],
      "name": "getApproved",
      "outputs": [
        {
          "internalType": "address",
          "name": "",
          "type": "address"
        }
      ],
      "stateMutability": "view",
      "type": "function"
    },
    {
      "inputs": [
        {
          "internalType": "address",
          "name": "owner",
          "type": "address"
        },
        {
          "internalType": "address",
          "name": "operator",
          "type": "address"
        }
      ],
      "name": "isApprovedForAll",
      "outputs": [
        {
          "internalType": "bool",
          "name": "",
          "type": "bool"
        }
      ],
      "stateMutability": "view",
      "type": "function"
    },
    {
      "inputs": [],
      "name": "maxSupply",
      "outputs": [
        {
          "internalType": "uint256",
          "name": "",
          "type": "uint256"
        }
      ],
      "stateMutability": "view",
      "type": "function"
    },
    {
      "inputs": [],
      "name": "name",
      "outputs": [
        {
          "internalType": "string",
          "name": "",
          "type": "string"
        }
      ],
      "stateMutability": "view",
      "type": "function"
    },
    {
      "inputs": [
        {
          "internalType": "uint256",
          "name": "tokenId",
          "type": "uint256"
        }
      ],
      "name": "ownerOf",
      "outputs": [
        {
          "internalType": "address",
          "name": "",
          "type": "address"
        }
      ],
      "stateMutability": "view",
      "type": "function"
    },
    {
      "inputs": [
        {
          "internalType": "address",
          "name": "operator",
          "type": "address"
        },
        {
          "internalType": "bool",
          "name": "approved",
          "type": "bool"
        }
      ],
      "name": "setApprovalForAll",
      "outputs": [],
      "stateMutability": "nonpayable",
      "type": "function"
    },
    {
      "inputs": [
        {
          "internalType": "bytes4",
          "name": "interfaceId",
          "type": "bytes4"
        }
      ],
      "name": "supportsInterface",
      "outputs": [
        {
          "internalType": "bool",
          "name": "",
          "type": "bool"
        }
      ],
      "stateMutability": "view",
      "type": "function"
    },
    {
      "inputs": [],
      "name": "symbol",
      "outputs": [
        {
          "internalType": "string",
          "name": "",
          "type": "string"
        }
      ],
      "stateMutability": "view",
      "type": "function"
    },
    {
      "inputs": [
        {
          "internalType": "uint256",
          "name": "tokenId",
          "type": "uint256"
        }
      ],
      "name": "tokenURI",
      "outputs": [
        {
          "internalType": "string",
          "name": "",
          "type": "string"
        }
      ],
      "stateMutability": "view",
      "type": "function"
    },
    {
      "inputs": [],
      "name": "totalSupply",
      "outputs": [
        {
          "internalType": "uint256",
          "name": "",
          "type": "uint256"
        }
      ],
      "stateMutability": "view",
      "type": "function"
    },
    {
      "inputs": [
        {
          "internalType": "string",
          "name": "_name",
          "type": "string"
        },
        {
          "internalType": "uint256",
          "name": "_posX",
          "type": "uint256"
        },
        {
          "internalType": "uint256",
          "name": "_posY",
          "type": "uint256"
        },
        {
          "internalType": "uint256",
          "name": "_posZ",
          "type": "uint256"
        },
        {
          "internalType": "uint256",
          "name": "_sizeX",
          "type": "uint256"
        },
        {
          "internalType": "uint256",
          "name": "_sizeY",
          "type": "uint256"
        },
        {
          "internalType": "uint256",
          "name": "_sizeZ",
          "type": "uint256"
        }
      ],
      "name": "pushBuilding",
      "outputs": [],
      "stateMutability": "nonpayable",
      "type": "function"
    },
    {
      "inputs": [
        {
          "internalType": "uint256",
          "name": "_id",
          "type": "uint256"
        }
      ],
      "name": "mint",
      "outputs": [],
      "stateMutability": "payable",
      "type": "function"
    },
    {
      "inputs": [
        {
          "internalType": "address",
          "name": "from",
          "type": "address"
        },
        {
          "internalType": "address",
          "name": "to",
          "type": "address"
        },
        {
          "internalType": "uint256",
          "name": "tokenId",
          "type": "uint256"
        }
      ],
      "name": "transferFrom",
      "outputs": [],
      "stateMutability": "nonpayable",
      "type": "function"
    },
    {
      "inputs": [
        {
          "internalType": "address",
          "name": "from",
          "type": "address"
        },
        {
          "internalType": "address",
          "name": "to",
          "type": "address"
        },
        {
          "internalType": "uint256",
          "name": "tokenId",
          "type": "uint256"
        }
      ],
      "name": "safeTransferFrom",
      "outputs": [],
      "stateMutability": "nonpayable",
      "type": "function"
    },
    {
      "inputs": [
        {
          "internalType": "address",
          "name": "from",
          "type": "address"
        },
        {
          "internalType": "address",
          "name": "to",
          "type": "address"
        },
        {
          "internalType": "uint256",
          "name": "tokenId",
          "type": "uint256"
        },
        {
          "internalType": "bytes",
          "name": "_data",
          "type": "bytes"
        }
      ],
      "name": "safeTransferFrom",
      "outputs": [],
      "stateMutability": "nonpayable",
      "type": "function"
    },
    {
      "inputs": [],
      "name": "getBuildings",
      "outputs": [
        {
          "components": [
            {
              "internalType": "string",
              "name": "name",
              "type": "string"
            },
            {
              "internalType": "address",
              "name": "owner",
              "type": "address"
            },
            {
              "internalType": "uint256",
              "name": "posX",
              "type": "uint256"
            },
            {
              "internalType": "uint256",
              "name": "posY",
              "type": "uint256"
            },
            {
              "internalType": "uint256",
              "name": "posZ",
              "type": "uint256"
            },
            {
              "internalType": "uint256",
              "name": "sizeX",
              "type": "uint256"
            },
            {
              "internalType": "uint256",
              "name": "sizeY",
              "type": "uint256"
            },
            {
              "internalType": "uint256",
              "name": "sizeZ",
              "type": "uint256"
            }
          ],
          "internalType": "struct metaverse.Building[]",
          "name": "",
          "type": "tuple[]"
        }
      ],
      "stateMutability": "view",
      "type": "function"
    },
    {
      "inputs": [
        {
          "internalType": "uint256",
          "name": "_id",
          "type": "uint256"
        }
      ],
      "name": "getBuilding",
      "outputs": [
        {
          "components": [
            {
              "internalType": "string",
              "name": "name",
              "type": "string"
            },
            {
              "internalType": "address",
              "name": "owner",
              "type": "address"
            },
            {
              "internalType": "uint256",
              "name": "posX",
              "type": "uint256"
            },
            {
              "internalType": "uint256",
              "name": "posY",
              "type": "uint256"
            },
            {
              "internalType": "uint256",
              "name": "posZ",
              "type": "uint256"
            },
            {
              "internalType": "uint256",
              "name": "sizeX",
              "type": "uint256"
            },
            {
              "internalType": "uint256",
              "name": "sizeY",
              "type": "uint256"
            },
            {
              "internalType": "uint256",
              "name": "sizeZ",
              "type": "uint256"
            }
          ],
          "internalType": "struct metaverse.Building",
          "name": "",
          "type": "tuple"
        }
      ],
      "stateMutability": "view",
      "type": "function"
    }
  ],
  "bytecode": "0x6080604052670de0b6b3a7640000600655600a6007553480156200002257600080fd5b5060405162003ae538038062003ae58339818101604052810190620000489190620001c5565b82828160009080519060200190620000629291906200008c565b5080600190805190602001906200007b9291906200008c565b5050506006549050505050620003e1565b8280546200009a90620002ec565b90600052602060002090601f016020900481019282620000be57600085556200010a565b82601f10620000d957805160ff19168380011785556200010a565b828001600101855582156200010a579182015b8281111562000109578251825591602001919060010190620000ec565b5b5090506200011991906200011d565b5090565b5b80821115620001385760008160009055506001016200011e565b5090565b6000620001536200014d8462000276565b6200024d565b9050828152602081018484840111156200016c57600080fd5b62000179848285620002b6565b509392505050565b600082601f8301126200019357600080fd5b8151620001a58482602086016200013c565b91505092915050565b600081519050620001bf81620003c7565b92915050565b600080600060608486031215620001db57600080fd5b600084015167ffffffffffffffff811115620001f657600080fd5b620002048682870162000181565b935050602084015167ffffffffffffffff8111156200022257600080fd5b620002308682870162000181565b92505060406200024386828701620001ae565b9150509250925092565b6000620002596200026c565b905062000267828262000322565b919050565b6000604051905090565b600067ffffffffffffffff82111562000294576200029362000387565b5b6200029f82620003b6565b9050602081019050919050565b6000819050919050565b60005b83811015620002d6578082015181840152602081019050620002b9565b83811115620002e6576000848401525b50505050565b600060028204905060018216806200030557607f821691505b602082108114156200031c576200031b62000358565b5b50919050565b6200032d82620003b6565b810181811067ffffffffffffffff821117156200034f576200034e62000387565b5b80604052505050565b7f4e487b7100000000000000000000000000000000000000000000000000000000600052602260045260246000fd5b7f4e487b7100000000000000000000000000000000000000000000000000000000600052604160045260246000fd5b6000601f19601f8301169050919050565b620003d281620002ac565b8114620003de57600080fd5b50565b6136f480620003f16000396000f3fe60806040526004361061012a5760003560e01c806370a08231116100ab578063a22cb4651161006f578063a22cb46514610410578063b88d4fde14610439578063c87b56dd14610462578063d5abeb011461049f578063d9cf6a26146104ca578063e985e9c5146104f55761012a565b806370a0823114610326578063799098991461036357806395d89b411461038c5780639dfd8b02146103b7578063a0712d68146103f45761012a565b806318160ddd116100f257806318160ddd1461022857806323b872dd1461025357806342842e0e1461027c5780634c96a062146102a55780636352211e146102e95761012a565b806301ffc9a71461012f57806306fdde031461016c578063081812fc14610197578063095ea7b3146101d457806313faede6146101fd575b600080fd5b34801561013b57600080fd5b50610156600480360381019061015191906124bc565b610532565b6040516101639190612b94565b60405180910390f35b34801561017857600080fd5b50610181610614565b60405161018e9190612baf565b60405180910390f35b3480156101a357600080fd5b506101be60048036038101906101b991906125c4565b6106a6565b6040516101cb9190612b0b565b60405180910390f35b3480156101e057600080fd5b506101fb60048036038101906101f69190612480565b61072b565b005b34801561020957600080fd5b50610212610843565b60405161021f9190612e38565b60405180910390f35b34801561023457600080fd5b5061023d610849565b60405161024a9190612e38565b60405180910390f35b34801561025f57600080fd5b5061027a6004803603810190610275919061237a565b61084f565b005b34801561028857600080fd5b506102a3600480360381019061029e919061237a565b610945565b005b3480156102b157600080fd5b506102cc60048036038101906102c791906125c4565b610965565b6040516102e0989796959493929190612bd1565b60405180910390f35b3480156102f557600080fd5b50610310600480360381019061030b91906125c4565b610a65565b60405161031d9190612b0b565b60405180910390f35b34801561033257600080fd5b5061034d60048036038101906103489190612315565b610b17565b60405161035a9190612e38565b60405180910390f35b34801561036f57600080fd5b5061038a6004803603810190610385919061250e565b610bcf565b005b34801561039857600080fd5b506103a1610cf6565b6040516103ae9190612baf565b60405180910390f35b3480156103c357600080fd5b506103de60048036038101906103d991906125c4565b610d88565b6040516103eb9190612e16565b60405180910390f35b61040e600480360381019061040991906125c4565b610f1b565b005b34801561041c57600080fd5b5061043760048036038101906104329190612444565b61108b565b005b34801561044557600080fd5b50610460600480360381019061045b91906123c9565b6110a1565b005b34801561046e57600080fd5b50610489600480360381019061048491906125c4565b611199565b6040516104969190612baf565b60405180910390f35b3480156104ab57600080fd5b506104b4611240565b6040516104c19190612e38565b60405180910390f35b3480156104d657600080fd5b506104df611246565b6040516104ec9190612b72565b60405180910390f35b34801561050157600080fd5b5061051c6004803603810190610517919061233e565b6113ca565b6040516105299190612b94565b60405180910390f35b60007f80ac58cd000000000000000000000000000000000000000000000000000000007bffffffffffffffffffffffffffffffffffffffffffffffffffffffff1916827bffffffffffffffffffffffffffffffffffffffffffffffffffffffff191614806105fd57507f5b5e139f000000000000000000000000000000000000000000000000000000007bffffffffffffffffffffffffffffffffffffffffffffffffffffffff1916827bffffffffffffffffffffffffffffffffffffffffffffffffffffffff1916145b8061060d575061060c8261145e565b5b9050919050565b606060008054610623906130d8565b80601f016020809104026020016040519081016040528092919081815260200182805461064f906130d8565b801561069c5780601f106106715761010080835404028352916020019161069c565b820191906000526020600020905b81548152906001019060200180831161067f57829003601f168201915b5050505050905090565b60006106b1826114c8565b6106f0576040517f08c379a00000000000000000000000000000000000000000000000000000000081526004016106e790612d96565b60405180910390fd5b6004600083815260200190815260200160002060009054906101000a900473ffffffffffffffffffffffffffffffffffffffff169050919050565b600061073682610a65565b90508073ffffffffffffffffffffffffffffffffffffffff168373ffffffffffffffffffffffffffffffffffffffff1614156107a7576040517f08c379a000000000000000000000000000000000000000000000000000000000815260040161079e90612dd6565b60405180910390fd5b8073ffffffffffffffffffffffffffffffffffffffff166107c6611534565b73ffffffffffffffffffffffffffffffffffffffff1614806107f557506107f4816107ef611534565b6113ca565b5b610834576040517f08c379a000000000000000000000000000000000000000000000000000000000815260040161082b90612d16565b60405180910390fd5b61083e838361153c565b505050565b60065481565b60085481565b61086061085a611534565b826115f5565b61089f576040517f08c379a000000000000000000000000000000000000000000000000000000000815260040161089690612df6565b60405180910390fd5b8160096001836108af9190612fee565b815481106108e6577f4e487b7100000000000000000000000000000000000000000000000000000000600052603260045260246000fd5b906000526020600020906008020160010160006101000a81548173ffffffffffffffffffffffffffffffffffffffff021916908373ffffffffffffffffffffffffffffffffffffffff1602179055506109408383836116d3565b505050565b610960838383604051806020016040528060008152506110a1565b505050565b6009818154811061097557600080fd5b9060005260206000209060080201600091509050806000018054610998906130d8565b80601f01602080910402602001604051908101604052809291908181526020018280546109c4906130d8565b8015610a115780601f106109e657610100808354040283529160200191610a11565b820191906000526020600020905b8154815290600101906020018083116109f457829003601f168201915b5050505050908060010160009054906101000a900473ffffffffffffffffffffffffffffffffffffffff16908060020154908060030154908060040154908060050154908060060154908060070154905088565b6000806002600084815260200190815260200160002060009054906101000a900473ffffffffffffffffffffffffffffffffffffffff169050600073ffffffffffffffffffffffffffffffffffffffff168173ffffffffffffffffffffffffffffffffffffffff161415610b0e576040517f08c379a0000000000000000000000000000000000000000000000000000000008152600401610b0590612d56565b60405180910390fd5b80915050919050565b60008073ffffffffffffffffffffffffffffffffffffffff168273ffffffffffffffffffffffffffffffffffffffff161415610b88576040517f08c379a0000000000000000000000000000000000000000000000000000000008152600401610b7f90612d36565b60405180910390fd5b600360008373ffffffffffffffffffffffffffffffffffffffff1673ffffffffffffffffffffffffffffffffffffffff168152602001908152602001600020549050919050565b6009604051806101000160405280898152602001600073ffffffffffffffffffffffffffffffffffffffff1681526020018881526020018781526020018681526020018581526020018481526020018381525090806001815401808255809150506001900390600052602060002090600802016000909190919091506000820151816000019080519060200190610c679291906120de565b5060208201518160010160006101000a81548173ffffffffffffffffffffffffffffffffffffffff021916908373ffffffffffffffffffffffffffffffffffffffff16021790555060408201518160020155606082015181600301556080820151816004015560a0820151816005015560c0820151816006015560e08201518160070155505050505050505050565b606060018054610d05906130d8565b80601f0160208091040260200160405190810160405280929190818152602001828054610d31906130d8565b8015610d7e5780601f10610d5357610100808354040283529160200191610d7e565b820191906000526020600020905b815481529060010190602001808311610d6157829003601f168201915b5050505050905090565b610d90612164565b6009600183610d9f9190612fee565b81548110610dd6577f4e487b7100000000000000000000000000000000000000000000000000000000600052603260045260246000fd5b906000526020600020906008020160405180610100016040529081600082018054610e00906130d8565b80601f0160208091040260200160405190810160405280929190818152602001828054610e2c906130d8565b8015610e795780601f10610e4e57610100808354040283529160200191610e79565b820191906000526020600020905b815481529060010190602001808311610e5c57829003601f168201915b505050505081526020016001820160009054906101000a900473ffffffffffffffffffffffffffffffffffffffff1673ffffffffffffffffffffffffffffffffffffffff1673ffffffffffffffffffffffffffffffffffffffff16815260200160028201548152602001600382015481526020016004820154815260200160058201548152602001600682015481526020016007820154815250509050919050565b6007546008541115610f2c57600080fd5b600073ffffffffffffffffffffffffffffffffffffffff166009600183610f539190612fee565b81548110610f8a577f4e487b7100000000000000000000000000000000000000000000000000000000600052603260045260246000fd5b906000526020600020906008020160010160009054906101000a900473ffffffffffffffffffffffffffffffffffffffff1673ffffffffffffffffffffffffffffffffffffffff1614610fdc57600080fd5b600654341015610feb57600080fd5b3373ffffffffffffffffffffffffffffffffffffffff1660096001836110119190612fee565b81548110611048577f4e487b7100000000000000000000000000000000000000000000000000000000600052603260045260246000fd5b906000526020600020906008020160010160009054906101000a90505050600860008154809291906110799061313b565b9190505550611088338261193a565b50565b61109d611096611534565b8383611958565b5050565b6110b26110ac611534565b836115f5565b6110f1576040517f08c379a00000000000000000000000000000000000000000000000000000000081526004016110e890612df6565b60405180910390fd5b8260096001846111019190612fee565b81548110611138577f4e487b7100000000000000000000000000000000000000000000000000000000600052603260045260246000fd5b906000526020600020906008020160010160006101000a81548173ffffffffffffffffffffffffffffffffffffffff021916908373ffffffffffffffffffffffffffffffffffffffff16021790555061119384848484611ac5565b50505050565b60606111a4826114c8565b6111e3576040517f08c379a00000000000000000000000000000000000000000000000000000000081526004016111da90612db6565b60405180910390fd5b60006111ed611b21565b9050600081511161120d5760405180602001604052806000815250611238565b8061121784611b38565b604051602001611228929190612ae7565b6040516020818303038152906040525b915050919050565b60075481565b60606009805480602002602001604051908101604052809291908181526020016000905b828210156113c157838290600052602060002090600802016040518061010001604052908160008201805461129e906130d8565b80601f01602080910402602001604051908101604052809291908181526020018280546112ca906130d8565b80156113175780601f106112ec57610100808354040283529160200191611317565b820191906000526020600020905b8154815290600101906020018083116112fa57829003601f168201915b505050505081526020016001820160009054906101000a900473ffffffffffffffffffffffffffffffffffffffff1673ffffffffffffffffffffffffffffffffffffffff1673ffffffffffffffffffffffffffffffffffffffff16815260200160028201548152602001600382015481526020016004820154815260200160058201548152602001600682015481526020016007820154815250508152602001906001019061126a565b50505050905090565b6000600560008473ffffffffffffffffffffffffffffffffffffffff1673ffffffffffffffffffffffffffffffffffffffff16815260200190815260200160002060008373ffffffffffffffffffffffffffffffffffffffff1673ffffffffffffffffffffffffffffffffffffffff16815260200190815260200160002060009054906101000a900460ff16905092915050565b60007f01ffc9a7000000000000000000000000000000000000000000000000000000007bffffffffffffffffffffffffffffffffffffffffffffffffffffffff1916827bffffffffffffffffffffffffffffffffffffffffffffffffffffffff1916149050919050565b60008073ffffffffffffffffffffffffffffffffffffffff166002600084815260200190815260200160002060009054906101000a900473ffffffffffffffffffffffffffffffffffffffff1673ffffffffffffffffffffffffffffffffffffffff1614159050919050565b600033905090565b816004600083815260200190815260200160002060006101000a81548173ffffffffffffffffffffffffffffffffffffffff021916908373ffffffffffffffffffffffffffffffffffffffff160217905550808273ffffffffffffffffffffffffffffffffffffffff166115af83610a65565b73ffffffffffffffffffffffffffffffffffffffff167f8c5be1e5ebec7d5bd14f71427d1e84f3dd0314c0f7b2291e5b200ac8c7c3b92560405160405180910390a45050565b6000611600826114c8565b61163f576040517f08c379a000000000000000000000000000000000000000000000000000000000815260040161163690612cf6565b60405180910390fd5b600061164a83610a65565b90508073ffffffffffffffffffffffffffffffffffffffff168473ffffffffffffffffffffffffffffffffffffffff16148061168c575061168b81856113ca565b5b806116ca57508373ffffffffffffffffffffffffffffffffffffffff166116b2846106a6565b73ffffffffffffffffffffffffffffffffffffffff16145b91505092915050565b8273ffffffffffffffffffffffffffffffffffffffff166116f382610a65565b73ffffffffffffffffffffffffffffffffffffffff1614611749576040517f08c379a000000000000000000000000000000000000000000000000000000000815260040161174090612c76565b60405180910390fd5b600073ffffffffffffffffffffffffffffffffffffffff168273ffffffffffffffffffffffffffffffffffffffff1614156117b9576040517f08c379a00000000000000000000000000000000000000000000000000000000081526004016117b090612cb6565b60405180910390fd5b6117c4838383611ce5565b6117cf60008261153c565b6001600360008573ffffffffffffffffffffffffffffffffffffffff1673ffffffffffffffffffffffffffffffffffffffff168152602001908152602001600020600082825461181f9190612fee565b925050819055506001600360008473ffffffffffffffffffffffffffffffffffffffff1673ffffffffffffffffffffffffffffffffffffffff16815260200190815260200160002060008282546118769190612f67565b92505081905550816002600083815260200190815260200160002060006101000a81548173ffffffffffffffffffffffffffffffffffffffff021916908373ffffffffffffffffffffffffffffffffffffffff160217905550808273ffffffffffffffffffffffffffffffffffffffff168473ffffffffffffffffffffffffffffffffffffffff167fddf252ad1be2c89b69c2b068fc378daa952ba7f163c4a11628f55a4df523b3ef60405160405180910390a4611935838383611cea565b505050565b611954828260405180602001604052806000815250611cef565b5050565b8173ffffffffffffffffffffffffffffffffffffffff168373ffffffffffffffffffffffffffffffffffffffff1614156119c7576040517f08c379a00000000000000000000000000000000000000000000000000000000081526004016119be90612cd6565b60405180910390fd5b80600560008573ffffffffffffffffffffffffffffffffffffffff1673ffffffffffffffffffffffffffffffffffffffff16815260200190815260200160002060008473ffffffffffffffffffffffffffffffffffffffff1673ffffffffffffffffffffffffffffffffffffffff16815260200190815260200160002060006101000a81548160ff0219169083151502179055508173ffffffffffffffffffffffffffffffffffffffff168373ffffffffffffffffffffffffffffffffffffffff167f17307eab39ab6107e8899845ad3d59bd9653f200f220920489ca2b5937696c3183604051611ab89190612b94565b60405180910390a3505050565b611ad08484846116d3565b611adc84848484611d4a565b611b1b576040517f08c379a0000000000000000000000000000000000000000000000000000000008152600401611b1290612c56565b60405180910390fd5b50505050565b606060405180602001604052806000815250905090565b60606000821415611b80576040518060400160405280600181526020017f30000000000000000000000000000000000000000000000000000000000000008152509050611ce0565b600082905060005b60008214611bb2578080611b9b9061313b565b915050600a82611bab9190612fbd565b9150611b88565b60008167ffffffffffffffff811115611bf4577f4e487b7100000000000000000000000000000000000000000000000000000000600052604160045260246000fd5b6040519080825280601f01601f191660200182016040528015611c265781602001600182028036833780820191505090505b5090505b60008514611cd957600182611c3f9190612fee565b9150600a85611c4e9190613184565b6030611c5a9190612f67565b60f81b818381518110611c96577f4e487b7100000000000000000000000000000000000000000000000000000000600052603260045260246000fd5b60200101907effffffffffffffffffffffffffffffffffffffffffffffffffffffffffffff1916908160001a905350600a85611cd29190612fbd565b9450611c2a565b8093505050505b919050565b505050565b505050565b611cf98383611ee1565b611d066000848484611d4a565b611d45576040517f08c379a0000000000000000000000000000000000000000000000000000000008152600401611d3c90612c56565b60405180910390fd5b505050565b6000611d6b8473ffffffffffffffffffffffffffffffffffffffff166120bb565b15611ed4578373ffffffffffffffffffffffffffffffffffffffff1663150b7a02611d94611534565b8786866040518563ffffffff1660e01b8152600401611db69493929190612b26565b602060405180830381600087803b158015611dd057600080fd5b505af1925050508015611e0157506040513d601f19601f82011682018060405250810190611dfe91906124e5565b60015b611e84573d8060008114611e31576040519150601f19603f3d011682016040523d82523d6000602084013e611e36565b606091505b50600081511415611e7c576040517f08c379a0000000000000000000000000000000000000000000000000000000008152600401611e7390612c56565b60405180910390fd5b805181602001fd5b63150b7a0260e01b7bffffffffffffffffffffffffffffffffffffffffffffffffffffffff1916817bffffffffffffffffffffffffffffffffffffffffffffffffffffffff191614915050611ed9565b600190505b949350505050565b600073ffffffffffffffffffffffffffffffffffffffff168273ffffffffffffffffffffffffffffffffffffffff161415611f51576040517f08c379a0000000000000000000000000000000000000000000000000000000008152600401611f4890612d76565b60405180910390fd5b611f5a816114c8565b15611f9a576040517f08c379a0000000000000000000000000000000000000000000000000000000008152600401611f9190612c96565b60405180910390fd5b611fa660008383611ce5565b6001600360008473ffffffffffffffffffffffffffffffffffffffff1673ffffffffffffffffffffffffffffffffffffffff1681526020019081526020016000206000828254611ff69190612f67565b92505081905550816002600083815260200190815260200160002060006101000a81548173ffffffffffffffffffffffffffffffffffffffff021916908373ffffffffffffffffffffffffffffffffffffffff160217905550808273ffffffffffffffffffffffffffffffffffffffff16600073ffffffffffffffffffffffffffffffffffffffff167fddf252ad1be2c89b69c2b068fc378daa952ba7f163c4a11628f55a4df523b3ef60405160405180910390a46120b760008383611cea565b5050565b6000808273ffffffffffffffffffffffffffffffffffffffff163b119050919050565b8280546120ea906130d8565b90600052602060002090601f01602090048101928261210c5760008555612153565b82601f1061212557805160ff1916838001178555612153565b82800160010185558215612153579182015b82811115612152578251825591602001919060010190612137565b5b50905061216091906121bf565b5090565b60405180610100016040528060608152602001600073ffffffffffffffffffffffffffffffffffffffff1681526020016000815260200160008152602001600081526020016000815260200160008152602001600081525090565b5b808211156121d85760008160009055506001016121c0565b5090565b60006121ef6121ea84612e78565b612e53565b90508281526020810184848401111561220757600080fd5b612212848285613096565b509392505050565b600061222d61222884612ea9565b612e53565b90508281526020810184848401111561224557600080fd5b612250848285613096565b509392505050565b60008135905061226781613662565b92915050565b60008135905061227c81613679565b92915050565b60008135905061229181613690565b92915050565b6000815190506122a681613690565b92915050565b600082601f8301126122bd57600080fd5b81356122cd8482602086016121dc565b91505092915050565b600082601f8301126122e757600080fd5b81356122f784826020860161221a565b91505092915050565b60008135905061230f816136a7565b92915050565b60006020828403121561232757600080fd5b600061233584828501612258565b91505092915050565b6000806040838503121561235157600080fd5b600061235f85828601612258565b925050602061237085828601612258565b9150509250929050565b60008060006060848603121561238f57600080fd5b600061239d86828701612258565b93505060206123ae86828701612258565b92505060406123bf86828701612300565b9150509250925092565b600080600080608085870312156123df57600080fd5b60006123ed87828801612258565b94505060206123fe87828801612258565b935050604061240f87828801612300565b925050606085013567ffffffffffffffff81111561242c57600080fd5b612438878288016122ac565b91505092959194509250565b6000806040838503121561245757600080fd5b600061246585828601612258565b92505060206124768582860161226d565b9150509250929050565b6000806040838503121561249357600080fd5b60006124a185828601612258565b92505060206124b285828601612300565b9150509250929050565b6000602082840312156124ce57600080fd5b60006124dc84828501612282565b91505092915050565b6000602082840312156124f757600080fd5b600061250584828501612297565b91505092915050565b600080600080600080600060e0888a03121561252957600080fd5b600088013567ffffffffffffffff81111561254357600080fd5b61254f8a828b016122d6565b97505060206125608a828b01612300565b96505060406125718a828b01612300565b95505060606125828a828b01612300565b94505060806125938a828b01612300565b93505060a06125a48a828b01612300565b92505060c06125b58a828b01612300565b91505092959891949750929550565b6000602082840312156125d657600080fd5b60006125e484828501612300565b91505092915050565b60006125f98383612969565b905092915050565b61260a81613022565b82525050565b61261981613022565b82525050565b600061262a82612eea565b6126348185612f18565b93508360208202850161264685612eda565b8060005b85811015612682578484038952815161266385826125ed565b945061266e83612f0b565b925060208a0199505060018101905061264a565b50829750879550505050505092915050565b61269d81613034565b82525050565b60006126ae82612ef5565b6126b88185612f29565b93506126c88185602086016130a5565b6126d181613271565b840191505092915050565b60006126e782612f00565b6126f18185612f3a565b93506127018185602086016130a5565b61270a81613271565b840191505092915050565b600061272082612f00565b61272a8185612f4b565b935061273a8185602086016130a5565b61274381613271565b840191505092915050565b600061275982612f00565b6127638185612f5c565b93506127738185602086016130a5565b80840191505092915050565b600061278c603283612f4b565b915061279782613282565b604082019050919050565b60006127af602583612f4b565b91506127ba826132d1565b604082019050919050565b60006127d2601c83612f4b565b91506127dd82613320565b602082019050919050565b60006127f5602483612f4b565b915061280082613349565b604082019050919050565b6000612818601983612f4b565b915061282382613398565b602082019050919050565b600061283b602c83612f4b565b9150612846826133c1565b604082019050919050565b600061285e603883612f4b565b915061286982613410565b604082019050919050565b6000612881602a83612f4b565b915061288c8261345f565b604082019050919050565b60006128a4602983612f4b565b91506128af826134ae565b604082019050919050565b60006128c7602083612f4b565b91506128d2826134fd565b602082019050919050565b60006128ea602c83612f4b565b91506128f582613526565b604082019050919050565b600061290d602f83612f4b565b915061291882613575565b604082019050919050565b6000612930602183612f4b565b915061293b826135c4565b604082019050919050565b6000612953603183612f4b565b915061295e82613613565b604082019050919050565b600061010083016000830151848203600086015261298782826126dc565b915050602083015161299c6020860182612601565b5060408301516129af6040860182612ac9565b5060608301516129c26060860182612ac9565b5060808301516129d56080860182612ac9565b5060a08301516129e860a0860182612ac9565b5060c08301516129fb60c0860182612ac9565b5060e0830151612a0e60e0860182612ac9565b508091505092915050565b6000610100830160008301518482036000860152612a3782826126dc565b9150506020830151612a4c6020860182612601565b506040830151612a5f6040860182612ac9565b506060830151612a726060860182612ac9565b506080830151612a856080860182612ac9565b5060a0830151612a9860a0860182612ac9565b5060c0830151612aab60c0860182612ac9565b5060e0830151612abe60e0860182612ac9565b508091505092915050565b612ad28161308c565b82525050565b612ae18161308c565b82525050565b6000612af3828561274e565b9150612aff828461274e565b91508190509392505050565b6000602082019050612b206000830184612610565b92915050565b6000608082019050612b3b6000830187612610565b612b486020830186612610565b612b556040830185612ad8565b8181036060830152612b6781846126a3565b905095945050505050565b60006020820190508181036000830152612b8c818461261f565b905092915050565b6000602082019050612ba96000830184612694565b92915050565b60006020820190508181036000830152612bc98184612715565b905092915050565b6000610100820190508181036000830152612bec818b612715565b9050612bfb602083018a612610565b612c086040830189612ad8565b612c156060830188612ad8565b612c226080830187612ad8565b612c2f60a0830186612ad8565b612c3c60c0830185612ad8565b612c4960e0830184612ad8565b9998505050505050505050565b60006020820190508181036000830152612c6f8161277f565b9050919050565b60006020820190508181036000830152612c8f816127a2565b9050919050565b60006020820190508181036000830152612caf816127c5565b9050919050565b60006020820190508181036000830152612ccf816127e8565b9050919050565b60006020820190508181036000830152612cef8161280b565b9050919050565b60006020820190508181036000830152612d0f8161282e565b9050919050565b60006020820190508181036000830152612d2f81612851565b9050919050565b60006020820190508181036000830152612d4f81612874565b9050919050565b60006020820190508181036000830152612d6f81612897565b9050919050565b60006020820190508181036000830152612d8f816128ba565b9050919050565b60006020820190508181036000830152612daf816128dd565b9050919050565b60006020820190508181036000830152612dcf81612900565b9050919050565b60006020820190508181036000830152612def81612923565b9050919050565b60006020820190508181036000830152612e0f81612946565b9050919050565b60006020820190508181036000830152612e308184612a19565b905092915050565b6000602082019050612e4d6000830184612ad8565b92915050565b6000612e5d612e6e565b9050612e69828261310a565b919050565b6000604051905090565b600067ffffffffffffffff821115612e9357612e92613242565b5b612e9c82613271565b9050602081019050919050565b600067ffffffffffffffff821115612ec457612ec3613242565b5b612ecd82613271565b9050602081019050919050565b6000819050602082019050919050565b600081519050919050565b600081519050919050565b600081519050919050565b6000602082019050919050565b600082825260208201905092915050565b600082825260208201905092915050565b600082825260208201905092915050565b600082825260208201905092915050565b600081905092915050565b6000612f728261308c565b9150612f7d8361308c565b9250827fffffffffffffffffffffffffffffffffffffffffffffffffffffffffffffffff03821115612fb257612fb16131b5565b5b828201905092915050565b6000612fc88261308c565b9150612fd38361308c565b925082612fe357612fe26131e4565b5b828204905092915050565b6000612ff98261308c565b91506130048361308c565b925082821015613017576130166131b5565b5b828203905092915050565b600061302d8261306c565b9050919050565b60008115159050919050565b60007fffffffff0000000000000000000000000000000000000000000000000000000082169050919050565b600073ffffffffffffffffffffffffffffffffffffffff82169050919050565b6000819050919050565b82818337600083830152505050565b60005b838110156130c35780820151818401526020810190506130a8565b838111156130d2576000848401525b50505050565b600060028204905060018216806130f057607f821691505b6020821081141561310457613103613213565b5b50919050565b61311382613271565b810181811067ffffffffffffffff8211171561313257613131613242565b5b80604052505050565b60006131468261308c565b91507fffffffffffffffffffffffffffffffffffffffffffffffffffffffffffffffff821415613179576131786131b5565b5b600182019050919050565b600061318f8261308c565b915061319a8361308c565b9250826131aa576131a96131e4565b5b828206905092915050565b7f4e487b7100000000000000000000000000000000000000000000000000000000600052601160045260246000fd5b7f4e487b7100000000000000000000000000000000000000000000000000000000600052601260045260246000fd5b7f4e487b7100000000000000000000000000000000000000000000000000000000600052602260045260246000fd5b7f4e487b7100000000000000000000000000000000000000000000000000000000600052604160045260246000fd5b6000601f19601f8301169050919050565b7f4552433732313a207472616e7366657220746f206e6f6e20455243373231526560008201527f63656976657220696d706c656d656e7465720000000000000000000000000000602082015250565b7f4552433732313a207472616e736665722066726f6d20696e636f72726563742060008201527f6f776e6572000000000000000000000000000000000000000000000000000000602082015250565b7f4552433732313a20746f6b656e20616c7265616479206d696e74656400000000600082015250565b7f4552433732313a207472616e7366657220746f20746865207a65726f2061646460008201527f7265737300000000000000000000000000000000000000000000000000000000602082015250565b7f4552433732313a20617070726f766520746f2063616c6c657200000000000000600082015250565b7f4552433732313a206f70657261746f7220717565727920666f72206e6f6e657860008201527f697374656e7420746f6b656e0000000000000000000000000000000000000000602082015250565b7f4552433732313a20617070726f76652063616c6c6572206973206e6f74206f7760008201527f6e6572206e6f7220617070726f76656420666f7220616c6c0000000000000000602082015250565b7f4552433732313a2062616c616e636520717565727920666f7220746865207a6560008201527f726f206164647265737300000000000000000000000000000000000000000000602082015250565b7f4552433732313a206f776e657220717565727920666f72206e6f6e657869737460008201527f656e7420746f6b656e0000000000000000000000000000000000000000000000602082015250565b7f4552433732313a206d696e7420746f20746865207a65726f2061646472657373600082015250565b7f4552433732313a20617070726f76656420717565727920666f72206e6f6e657860008201527f697374656e7420746f6b656e0000000000000000000000000000000000000000602082015250565b7f4552433732314d657461646174613a2055524920717565727920666f72206e6f60008201527f6e6578697374656e7420746f6b656e0000000000000000000000000000000000602082015250565b7f4552433732313a20617070726f76616c20746f2063757272656e74206f776e6560008201527f7200000000000000000000000000000000000000000000000000000000000000602082015250565b7f4552433732313a207472616e736665722063616c6c6572206973206e6f74206f60008201527f776e6572206e6f7220617070726f766564000000000000000000000000000000602082015250565b61366b81613022565b811461367657600080fd5b50565b61368281613034565b811461368d57600080fd5b50565b61369981613040565b81146136a457600080fd5b50565b6136b08161308c565b81146136bb57600080fd5b5056fea2646970667358221220f55cedf2df4cfe07f4575f1539dadc40e5eca0a98e5a67a5e7535ec8a411713964736f6c63430008020033",
  "immutableReferences": {},
  "source": "// SPDX-License-Identifier: MIT\r\npragma solidity ^0.8.0;\r\n\r\nimport \"@openzeppelin/contracts/token/ERC721/ERC721.sol\";\r\n\r\ncontract metaverse is ERC721{\r\n    uint256 public cost = 1 ether;\r\n    uint256 public maxSupply=10;\r\n    uint256 public totalSupply;\r\n\r\n    struct  Building {\r\n\r\n        string name;\r\n        address owner;\r\n        uint256 posX;\r\n        uint256 posY;\r\n        uint256 posZ;\r\n        uint256 sizeX;\r\n        uint256 sizeY;\r\n        uint256 sizeZ;\r\n\r\n\r\n    }\r\n    Building[] public buildings;\r\n\r\n\r\n\r\n\r\n    constructor( string memory _name , string memory _symbol , uint256 _cost) ERC721(_name , _symbol) {\r\n        _cost = cost;\r\n        //_buildingAddress=owner;\r\n        //_posx=posX;\r\n        //_posy=posY;\r\n        //_posz=posZ;\r\n        //_sizex=sizeX;\r\n        //_sizey=sizeY;\r\n        //_sizez=sizeZ;\r\n        \r\n        //buildings.push(Building(name , address(0x0),posX,posY,posZ,sizeX,sizeY,sizeZ));\r\n        //buildings.push(Building(\"Two\" , address(0x0),10,0,0,10,10,10));\r\n        //buildings.push(Building(\"Three\" , address(0x0),20,0,0,10,10,10));\r\n        //buildings.push(Building(\"Four\" , address(0x0),30,0,0,10,10,10));\r\n\r\n\r\n\r\n    }\r\n\r\n    function pushBuilding(string memory _name,uint256 _posX,uint256 _posY, uint256 _posZ, uint256 _sizeX, uint256 _sizeY, uint256 _sizeZ ) public{\r\n        buildings.push(Building(_name , address(0x0),_posX,_posY,_posZ,_sizeX,_sizeY,_sizeZ));\r\n    }\r\n\r\n    function mint(uint256 _id) public payable{\r\n        \r\n        require(totalSupply <= maxSupply);\r\n        require(buildings[_id -1].owner == address(0x0));\r\n        require(msg.value >= cost);\r\n        buildings[_id -1].owner == msg.sender;\r\n        totalSupply++;\r\n        _safeMint(msg.sender , _id);\r\n\r\n    }\r\n    function transferFrom(\r\n        address from,\r\n        address to,\r\n        uint256 tokenId\r\n    ) public virtual override {\r\n        //solhint-disable-next-line max-line-length\r\n        require(_isApprovedOrOwner(_msgSender(), tokenId), \"ERC721: transfer caller is not owner nor approved\");\r\n\r\n        buildings[tokenId-1].owner = to;\r\n\r\n        _transfer(from, to, tokenId);\r\n    }\r\n\r\n    function safeTransferFrom(\r\n        address from,\r\n        address to,\r\n        uint256 tokenId,\r\n        bytes memory _data\r\n    )public virtual override {\r\n        require(_isApprovedOrOwner(_msgSender(), tokenId), \"ERC721: transfer caller is not owner nor approved\");\r\n\r\n        buildings[tokenId-1].owner = to;\r\n        _safeTransfer(from, to, tokenId, _data);\r\n    }\r\n\r\n\r\n\r\n    function getBuildings() public view returns(Building[] memory){\r\n\r\n        return buildings;\r\n    }\r\n  \r\n    function getBuilding(uint256 _id) public view returns(Building memory){\r\n\r\n        return buildings[_id-1];\r\n    }\r\n\r\n\r\n\r\n\r\n}\r\n",
  "sourcePath": "C:\\Users\\saksh\\metaverse\\src\\contracts\\Land.sol",
  "compiler": {
    "name": "solc",
    "version": "0.8.2+commit.661d1103.Emscripten.clang"
  },
  "schemaVersion": "3.4.7",
  "updatedAt": "2022-06-19T13:28:30.875Z",
  "devdoc": {
    "kind": "dev",
    "methods": {
      "approve(address,uint256)": {
        "details": "See {IERC721-approve}."
      },
      "balanceOf(address)": {
        "details": "See {IERC721-balanceOf}."
      },
      "getApproved(uint256)": {
        "details": "See {IERC721-getApproved}."
      },
      "isApprovedForAll(address,address)": {
        "details": "See {IERC721-isApprovedForAll}."
      },
      "name()": {
        "details": "See {IERC721Metadata-name}."
      },
      "ownerOf(uint256)": {
        "details": "See {IERC721-ownerOf}."
      },
      "safeTransferFrom(address,address,uint256)": {
        "details": "See {IERC721-safeTransferFrom}."
      },
      "safeTransferFrom(address,address,uint256,bytes)": {
        "details": "See {IERC721-safeTransferFrom}."
      },
      "setApprovalForAll(address,bool)": {
        "details": "See {IERC721-setApprovalForAll}."
      },
      "supportsInterface(bytes4)": {
        "details": "See {IERC165-supportsInterface}."
      },
      "symbol()": {
        "details": "See {IERC721Metadata-symbol}."
      },
      "tokenURI(uint256)": {
        "details": "See {IERC721Metadata-tokenURI}."
      },
      "transferFrom(address,address,uint256)": {
        "details": "See {IERC721-transferFrom}."
      }
    },
    "version": 1
  },
  "userdoc": {
    "kind": "user",
    "methods": {},
    "version": 1
  }
}